:020000040800F2
:1000000000280020A9130008B9120008BF12000838
:10001000C5120008CB120008D11200080000000031
:10002000000000000000000000000000D7120008DF
:10003000E312000800000000EF120008FB120008A5
:10004000F1130008F1130008F1130008F113000880
:10005000F1130008F1130008F1130008F113000870
:10006000F1130008F1130008F1130008F113000860
:10007000F1130008F1130008F1130008F113000850
:10008000F1130008F1130008F1130008F113000840
:10009000F1130008F1130008F1130008F113000830
:1000A000F1130008F1130008F1130008F113000820
:1000B000091300081D13000800000000F1130008D8
:1000C000F11300080000000000000000F113000818
:1000D00000000000F1130008F11300080000000008
:1000E000F1130008F1130008F113000800000000EC
:1000F0000000000000000000000000000000000000
:0C01000000000000000000005FF808F1A3
:1001100010B5054C237833B9044B13B10448AFF341
:1001200000800123237010BD740000200000000037
:10013000BC33000808B5034B1BB103490348AFF3B8
:10014000008008BD0000000078000020BC330008DB
:100150004FF0FF0C1CEAD0521EBF1CEAD15392EAAA
:100160000C0F93EA0C0F6FD01A4480EA010C400286
:1001700018BF5FEA41211ED04FF0006343EA5010E0
:1001800043EA5111A0FB01310CF00040B1F5000F22
:100190003EBF490041EAD3715B0040EA010062F1D1
:1001A0007F02FD2A1DD8B3F1004F40EBC25008BFBB
:1001B00020F00100704790F0000F0CF0004C08BFD9
:1001C00049024CEA502040EA51207F3AC2BFD2F1A6
:1001D000FF0340EAC250704740F400004FF00003B4
:1001E000013A5DDC12F1190FDCBF00F000407047EE
:1001F000C2F10002410021FA02F1C2F1200200FA2C
:1002000002FC5FEA310040F1000053EA4C0308BFF2
:1002100020EADC70704792F0000F00F0004C02BF43
:10022000400010F4000F013AF9D040EA0C0093F0BE
:10023000000F01F0004C02BF490011F4000F013B18
:10024000F9D041EA0C018FE70CEAD15392EA0C0F86
:1002500018BF93EA0C0F0AD030F0004C18BF31F0F1
:10026000004CD8D180EA010000F00040704790F0C7
:10027000000F17BF90F0004F084691F0000F91F06B
:10028000004F14D092EA0C0F01D142020FD193EA31
:100290000C0F03D14B0218BF084608D180EA0100B9
:1002A00000F0004040F0FE4040F40000704740F095
:1002B000FE4040F44000704781F0004102E000BF82
:1002C00083F0004330B54FEA41044FEA430594EA16
:1002D000050F08BF90EA020F1FBF54EA000C55EA51
:1002E000020C7FEA645C7FEA655C00F0E2804FEA22
:1002F0005454D4EB5555B8BF6D420CDD2C4480EA04
:10030000020281EA030382EA000083EA010180EA33
:10031000020281EA0303362D88BF30BD11F0004F81
:100320004FEA01314FF4801C4CEA113102D04042B7
:1003300061EB410113F0004F4FEA03334CEA1333F2
:1003400002D0524263EB430394EA050F00F0A7800A
:10035000A4F10104D5F1200E0DDB02FA0EFC22FA05
:1003600005F2801841F1000103FA0EF2801843FAF9
:1003700005F359410EE0A5F120050EF1200E012AEA
:1003800003FA0EFC28BF4CF0020C43FA05F3C01828
:1003900051EBE37101F0004507D54FF0000EDCF1A1
:1003A000000C7EEB00006EEB0101B1F5801F1BD34A
:1003B000B1F5001F0CD349085FEA30004FEA3C0C4E
:1003C00004F101044FEA445212F5800F80F09A8044
:1003D000BCF1004F08BF5FEA500C50F1000041EB48
:1003E000045141EA050130BD5FEA4C0C404141EB4C
:1003F0000101013C28BFB1F5801FE9D291F0000F47
:1004000004BF01460020B1FA81F308BF2033A3F1F5
:100410000B03B3F120020CDA0C3208DD02F1140CEC
:10042000C2F10C0201FA0CF021FA02F10CE002F127
:100430001402D8BFC2F1200C01FA02F120FA0CFC20
:10044000DCBF41EA0C019040E41AA2BF01EB045169
:10045000294330BD6FEA04041F3C1CDA0C340EDC67
:1004600004F11404C4F1200220FA04F001FA02F3AA
:1004700040EA030021FA04F345EA030130BDC4F168
:100480000C04C4F1200220FA02F001FA04F340EA5D
:100490000300294630BD21FA04F0294630BD94F00E
:1004A000000F83F4801306BF81F480110134013DF5
:1004B0004EE77FEA645C18BF7FEA655C29D094EA66
:1004C000050F08BF90EA020F05D054EA000C04BFE4
:1004D0001946104630BD91EA030F1EBF00210020CF
:1004E00030BD5FEA545C05D14000494128BF41F06E
:1004F000004130BD14F580043CBF01F5801130BDD2
:1005000001F0004545F0FE4141F470014FF000005C
:1005100030BD7FEA645C1ABF194610467FEA655C0D
:100520001CBF0B46024650EA013406BF52EA0335AF
:1005300091EA030F41F4002130BD00BF90F0000F9D
:1005400004BF0021704730B54FF4806404F13204D9
:100550004FF000054FF0000150E700BF90F0000F92
:1005600004BF0021704730B54FF4806404F13204B9
:1005700010F0004548BF40424FF000013EE700BF89
:1005800042004FEAE2014FEA31014FEA02701FBF19
:1005900012F07F4393F07F4F81F06051704732F04B
:1005A0007F4208BF704793F07F4F04BF41F40021A2
:1005B000704730B54FF4607401F0004521F0004100
:1005C0001CE700BF50EA010208BF704730B54FF08A
:1005D00000050AE050EA010208BF704730B511F08B
:1005E000004502D5404261EB41014FF4806404F1C3
:1005F00032045FEA915C3FF4D8AE4FF003025FEA49
:10060000DC0C18BF03325FEADC0C18BF033202EBCC
:10061000DC02C2F1200300FA03FC20FA02F001FA26
:1006200003FE40EA0E0021FA02F11444BDE600BFC9
:1006300070B54FF0FF0C4CF4E06C1CEA11541DBF78
:100640001CEA135594EA0C0F95EA0C0F00F0DEF843
:100650002C4481EA030621EA4C5123EA4C5350EA28
:10066000013518BF52EA033541F4801143F4801379
:1006700038D0A0FB02CE4FF00005E1FB02E506F00A
:100680000042E0FB03E54FF00006E1FB03569CF05F
:10069000000F18BF4EF0010EA4F1FF04B6F5007F65
:1006A00064F5407404D25FEA4E0E6D4146EB0606D7
:1006B00042EAC62141EA55514FEAC52040EA5E5060
:1006C0004FEACE2EB4F1FD0C88BFBCF5E06F1ED80A
:1006D000BEF1004F08BF5FEA500E50F1000041EB41
:1006E000045170BD06F0004646EA010140EA0200EE
:1006F00081EA0301B4EB5C04C2BFD4EB0C0541EA10
:10070000045170BD41F480114FF0000E013C00F324
:10071000AB8014F1360FDEBF002001F0004170BD48
:10072000C4F10004203C35DA0C341BDC04F1140461
:10073000C4F1200500FA05F320FA04F001FA05F2ED
:1007400040EA020001F0004221F0004110EBD370BA
:1007500021FA04F642EB06015EEA430E08BF20EAE6
:10076000D37070BDC4F10C04C4F1200500FA04F389
:1007700020FA05F001FA04F240EA020001F000411B
:1007800010EBD37041F100015EEA430E08BF20EA8E
:10079000D37070BDC4F1200500FA05F24EEA020ED6
:1007A00020FA04F301FA05F243EA020321FA04F005
:1007B00001F0004121FA04F220EA020000EBD370BC
:1007C0005EEA430E08BF20EAD37070BD94F0000FBC
:1007D0000FD101F00046400041EB010111F4801FF0
:1007E00008BF013CF7D041EA060195F0000F18BFA1
:1007F000704703F00046520043EB030313F4801FDD
:1008000008BF013DF7D043EA0603704794EA0C0F96
:100810000CEA135518BF95EA0C0F0CD050EA4106AC
:1008200018BF52EA4306D1D181EA030101F0004129
:100830004FF0000070BD50EA410606BF1046194651
:1008400052EA430619D094EA0C0F02D150EA01365D
:1008500013D195EA0C0F05D152EA03361CBF10469E
:1008600019460AD181EA030101F0004141F0FE413D
:1008700041F470014FF0000070BD41F0FE4141F4C1
:10088000780170BD70B54FF0FF0C4CF4E06C1CEAC1
:1008900011541DBF1CEA135594EA0C0F95EA0C0F76
:1008A00000F0A7F8A4EB050481EA030E52EA033531
:1008B0004FEA013100F088804FEA03334FF0805552
:1008C00045EA131343EA12634FEA022245EA11157F
:1008D00045EA10654FEA00260EF000419D4208BF30
:1008E000964244F1FD0404F5407402D25B084FEADD
:1008F0003202B61A65EB03055B084FEA32024FF489
:1009000080104FF4002CB6EB020E75EB030E22BFE5
:10091000B61A754640EA0C005B084FEA3202B6EBA5
:10092000020E75EB030E22BFB61A754640EA5C0054
:100930005B084FEA3202B6EB020E75EB030E22BFE4
:10094000B61A754640EA9C005B084FEA3202B6EBE5
:10095000020E75EB030E22BFB61A754640EADC00A4
:1009600055EA060E18D04FEA051545EA16754FEA06
:1009700006164FEAC30343EA52734FEAC2025FEA24
:100980001C1CC0D111F4801F0BD141EA00014FF0B3
:1009900000004FF0004CB6E711F4801F04BF014384
:1009A0000020B4F1FD0C88BFBCF5E06F3FF6AFAEA0
:1009B000B5EB030C04BFB6EB020C5FEA500C50F130
:1009C000000041EB045170BD0EF0004E4EEA1131B3
:1009D00014EB5C04C2BFD4EB0C0541EA045170BDBA
:1009E00041F480114FF0000E013C90E645EA060EFE
:1009F0008DE60CEA135594EA0C0F08BF95EA0C0F2C
:100A00003FF43BAF94EA0C0F0AD150EA01347FF473
:100A100034AF95EA0C0F7FF425AF104619462CE74A
:100A200095EA0C0F06D152EA03353FF4FDAE1046AD
:100A3000194622E750EA410618BF52EA43067FF4FE
:100A4000C5AE50EA41047FF40DAF52EA43057FF48E
:100A5000EBAE12E74FEA4102B2F1E04324BFB3F537
:100A6000001CDCF1FE5C0DD901F0004C4FEAC00225
:100A70004CEA5070B2F1004F40EB830008BF20F009
:100A80000100704711F0804F21D113F13872BCBFC3
:100A900001F00040704741F480114FEA5252C2F118
:100AA0001802C2F1200C10FA0CF320FA02F018BF61
:100AB00040F001004FEAC1234FEAD32303FA0CFCB4
:100AC00040EA0C0023FA02F34FEA4303CCE77FEA43
:100AD000625307D150EA01331EBF4FF0FE4040F48D
:100AE0004000704701F0004040F0FE4040F400003C
:100AF000704700BF42000ED2B2F1FE4F0BD34FF051
:100B00009E03B3EB126209D44FEA002343F0004383
:100B100023FA02F070474FF00000704712F1610FA6
:100B200001D1420202D14FF0FF3070474FF0000078
:100B3000704700BF00000000B0B500AF00F05AFCE5
:100B400000F09AF800F07EF900F0DCF800F02CF9E3
:100B50003F4801F0AFFB3F4801F0F0FB00F098FA8E
:100B60000021012000F0DAF93B4B1B683A4A126879
:100B700011461846FFF7ECFA03461846FFF700FD4A
:100B800031A3D3E90023FFF753FD02460B4610467D
:100B900019462DA3D3E90023FFF74AFD02460B4671
:100BA00014461D462D4B1B681846FFF7E9FC02460C
:100BB0000B4620462946FFF73BFD02460B461046F2
:100BC00019464FF00002264BFFF732FD02460B4656
:100BD0004FF000002349FFF755FE02460B46104632
:100BE0001946FFF737FF03461F4A13600122102101
:100BF0001E4800F00FFF322000F05EFC00221021A2
:100C00001A4800F007FF322000F056FC0021802037
:100C100000F084F9164800F06CFA0021C02000F0C2
:100C20007DF9144800F065FA0F4B1B681846FFF772
:100C300061FF0346DBB2184600F05BFA4FF4FA603E
:100C400000F03AFC8CE700BFA7E8482EFF210940DE
:100C500090000020D800002050010020000000205B
:100C6000000010400000F03F540100200008014047
:100C700028010020D433000880B590B000AF07F100
:100C8000180328220021184601F016FF3B1D002200
:100C90001A605A609A60DA601A610123BB614FF4EE
:100CA0008033FB6100233B620123BB6202237B6331
:100CB0004FF48033BB634FF4E013FB6307F1180379
:100CC000184600F0BFFE0346002B01D000F05CFA8E
:100CD0000F237B600223BB600023FB604FF4806323
:100CE0003B6100237B613B1D0221184601F02CF97A
:100CF0000346002B01D000F047FA00BF4037BD4645
:100D000080BD000080B586B000AF07F10803002267
:100D10001A605A609A60DA603B4600221A605A6094
:100D2000204B4FF080421A601E4B01225A601D4B2F
:100D300000229A601B4B4FF6FF72DA60194B0022BB
:100D40001A61184B80229A61164801F063FA034633
:100D5000002B01D000F018FA4FF40053BB600023C1
:100D6000FB6000233B6100237B6107F10803194608
:100D70000C4801F037FC0346002B01D000F004FAC8
:100D800000233B6000237B603B461946054801F089
:100D9000FFFD0346002B01D000F0F6F900BF183725
:100DA000BD4680BD9000002080B586B000AF07F141
:100DB000080300221A605A609A60DA603B460022FB
:100DC0001A605A601D4B1E4A1A601C4B64225A60FE
:100DD0001A4B00229A60194B48F6A042DA60174B72
:100DE00000221A61154B00229A61144801F012FA90
:100DF0000346002B01D000F0C7F94FF48053BB60CD
:100E000007F1080319460D4801F0ECFB0346002BDF
:100E100001D000F0B9F900233B6000237B603B4622
:100E20001946064801F0B4FD0346002B01D000F03E
:100E3000ABF900BF1837BD4680BD00BFD800002009
:100E40000004004080B588B000AF07F11003002215
:100E50001A605A609A60DA602D4B9B692C4A43F005
:100E6000100393612A4B9B6903F01003FB60FB683E
:100E7000274B9B69264A43F020039361244B9B69CF
:100E800003F02003BB60BB68214B9B69204A43F001
:100E9000040393611E4B9B6903F004037B607B6832
:100EA0001B4B9B691A4A43F008039361184B9B69DB
:100EB00003F008033B603B6800221021154800F056
:100EC000A9FD002243F60341134800F0A3FD1023BF
:100ED0003B6101237B610023BB610223FB6107F1BE
:100EE000100319460B4800F019FC43F603433B611D
:100EF00001237B610023BB610223FB6107F1100327
:100F00001946054800F00AFC00BF2037BD4680BDE9
:100F10000010024000080140000C014080B584B080
:100F200000AF03460A46FB711346BB71BB791A46F4
:100F30004FF40051554800F06DFDFB791B09FB7320
:100F40000023BB7336E0FB7B03F001037B73BB7BA9
:100F5000032B29D801A252F823F000BF6D0F00081F
:100F60007B0F0008890F0008990F00087B7B1A4649
:100F70000121464800F04EFD16E07B7B1A46022117
:100F8000424800F047FD0FE07B7B1A464FF480613A
:100F90003E4800F03FFD07E07B7B1A464FF40061BE
:100FA0003A4800F037FD00BFFB7B5B08FB73BB7B5F
:100FB0000133BB73BB7B032BC5D901224FF4805196
:100FC000324800F027FD022000F076FA00224FF4AC
:100FD00080512E4800F01EFD012000F06DFAFB79D3
:100FE00003F00F03FB730023BB7335E0FB7B03F0BF
:100FF00001037B73BB7B032B28D801A252F823F09B
:10100000111000081F1000082D1000083D100008E6
:101010007B7B1A4601211D4800F0FCFC16E07B7B1F
:101020001A460221194800F0F5FC0FE07B7B1A46B6
:101030004FF48061154800F0EDFC07E07B7B1A4619
:101040004FF40061114800F0E5FC00BFFB7B5B083A
:10105000FB73BB7B0133BB73BB7B032BC6D9012264
:101060004FF48051094800F0D5FC022000F024FA2A
:1010700000224FF48051054800F0CCFC012000F024
:101080001BFA00BF1037BD4680BD00BF000C0140F9
:1010900080B500AF282000F00FFA00212820FFF7CC
:1010A0003DFF022000F008FA00210120FFF736FF83
:1010B000022000F001FA00210220FFF72FFF02209A
:1010C00000F0FAF900210C20FFF728FF022000F0C1
:1010D000F3F900210620FFF721FF022000F0ECF9D0
:1010E00000218020FFF71AFF022000F0E5F900BF81
:1010F00080BD80B582B000AF786008E07B681B7867
:1011000001211846FFF70AFF7B6801337B607B688B
:101110001B78002BF2D100BF00BF0837BD4680BD51
:1011200080B582B000AF78607B681B68114A93423B
:101130001BD14FF080435B6A0F4A13600E4B1A6855
:1011400013469B0013449B001A460C4B1A600B4B32
:101150001B681A460A490B4801F0B6FC054B0022F1
:101160005A624FF0804300225A6200BF0837BD46E2
:1011700080BD00BF000400402001002024010020A9
:10118000DC3300082801002080B400AF72B600BF35
:10119000FEE7000080B485B000AF154B9B69144A90
:1011A00043F001039361124B9B6903F00103BB60A1
:1011B000BB680F4BDB690E4A43F08053D3610C4B85
:1011C000DB6903F080537B607B680A4B5B68FB60E4
:1011D000FB6823F0E063FB60FB6843F00073FB6097
:1011E000044AFB68536000BF1437BD4680BC70479B
:1011F000001002400000014080B58AB000AF786066
:1012000007F1180300221A605A609A60DA607B685E
:101210001B68B3F1804F2CD1244BDB69234A43F088
:101220000103D361214BDB6903F001037B617B691F
:101230001E4B9B691D4A43F0040393611B4B9B6942
:1012400003F004033B613B690123BB610023FB61A5
:1012500000233B6207F118031946154800F05EFAB7
:10126000002200211C2000F022FA1C2000F03BFA92
:1012700018E07B681B680F4A934213D10B4BDB6964
:101280000A4A43F00203D361084BDB6903F002030F
:10129000FB60FB68002200211D2000F008FA1D20E1
:1012A00000F021FA00BF2837BD4680BD0010024083
:1012B000000801400004004080B400AFFEE780B4A5
:1012C00000AFFEE780B400AFFEE780B400AFFEE7FA
:1012D00080B400AFFEE780B400AF00BFBD4680BC65
:1012E000704780B400AF00BFBD4680BC704780B47B
:1012F00000AF00BFBD4680BC704780B500AF00F0B6
:10130000BFF800BF80BD000080B500AF024801F00B
:1013100061F800BF80BD00BF9000002080B500AF25
:10132000024801F057F800BF80BD00BFD800002080
:1013300080B586B000AF7860144A154BD31A7B6134
:101340007B693B61134B1B68002B02D1114B124A86
:101350001A60104B1A687B6813443A699A4207D2A4
:1013600001F080FB03460C221A604FF0FF3309E0C6
:10137000084B1B68FB60074B1A687B681344054ADF
:101380001360FB6818461837BD4680BD0028002052
:1013900000040000580100207001002080B400AF5C
:1013A00000BFBD4680BC70470C480D490D4A002364
:1013B00002E0D458C4500433C4188C42F9D30A4A0A
:1013C0000A4C002301E013600432A242FBD3FFF772
:1013D000E5FF01F04DFBFFF7AFFB70470000002079
:1013E00074000020483400087400002070010020C0
:1013F000FEE7000080B500AF084B1B68074A43F0CA
:1014000010031360032000F047F90F2000F008F8E4
:10141000FFF7C0FE0023184680BD00BF0020024039
:1014200080B582B000AF7860124B1A68124B1B78FF
:1014300019464FF47A73B3FBF1F3B2FBF3F318469A
:1014400000F05FF90346002B01D001230EE07B681A
:101450000F2B0AD8002279684FF0FF3000F027F9EF
:10146000064A7B681360002300E001231846083712
:10147000BD4680BD040000200C00002008000020B4
:1014800080B400AF054B1B781A46054B1B6813440C
:10149000034A136000BFBD4680BC70470C000020AB
:1014A0005C01002080B400AF024B1B681846BD46AB
:1014B00080BC70475C01002080B584B000AF7860CC
:1014C000FFF7F0FFB8607B68FB60FB68B3F1FF3F9C
:1014D00005D00A4B1B781A46FB681344FB6000BF1B
:1014E000FFF7E0FF0246BB68D31AFA689A42F7D8C2
:1014F00000BF00BF1037BD4680BD00BF0C000020FC
:1015000080B485B000AF78607B6803F00703FB60B0
:101510000C4BDB68BB60BA684FF6FF031340BB603F
:10152000FB681A02BB68134343F0BF6343F4003304
:10153000BB60044ABB68D36000BF1437BD4680BCA3
:10154000704700BF00ED00E080B400AF044BDB68E3
:101550001B0A03F007031846BD4680BC704700BF56
:1015600000ED00E080B483B000AF0346FB7197F953
:101570000730002B0BDBFB7903F01F02064997F9BC
:1015800007305B09012000FA02F241F8232000BF76
:101590000C37BD4680BC704700E100E080B483B0EA
:1015A00000AF03463960FB7197F90730002B0ADB67
:1015B0003B68DAB20C4997F907301201D2B20B44FA
:1015C00083F800230AE03B68DAB20849FB7903F0AC
:1015D0000F03043B1201D2B20B441A7600BF0C3742
:1015E000BD4680BC704700BF00E100E000ED00E0B8
:1015F00080B489B000AFF860B9607A60FB6803F02E
:101600000703FB61FB69C3F10703042B28BF042315
:10161000BB61FB690433062B02D9FB69033B00E085
:1016200000237B614FF0FF32BB6902FA03F3DA4318
:10163000BB681A407B699A404FF0FF317B6901FA21
:1016400003F3D9437B680B40134318462437BD4648
:1016500080BC704780B582B000AF78607B68013B8A
:10166000B3F1807F01D301230FE00A4A7B68013B7D
:1016700053600F214FF0FF30FFF790FF054B002222
:101680009A60044B07221A60002318460837BD46AB
:1016900080BD00BF10E000E080B582B000AF786090
:1016A0007868FFF72DFF00BF0837BD4680BD80B5C5
:1016B00086B000AF0346B9607A60FB7300237B619C
:1016C000FFF742FF78617A68B9687869FFF790FFA1
:1016D000024697F90F3011461846FFF75FFF00BF2B
:1016E0001837BD4680BD80B582B000AF0346FB71A0
:1016F00097F907301846FFF735FF00BF0837BD469A
:1017000080BD80B582B000AF78607868FFF7A2FF37
:10171000034618460837BD4680BD000080B48BB034
:1017200000AF7860396000237B6200233B6261E197
:1017300001227B6A02FA03F3FB613B681B68FA69CA
:101740001340BB61BA69FB699A4240F050813B6823
:101750005B68974A93425ED0954A934275D8954A02
:10176000934258D0934A93426FD8934A934252D0AF
:10177000914A934269D8914A93424CD08F4A9342FE
:1017800063D88F4A934246D08D4A93425DD8122B3C
:101790002AD8122B59D801A252F823F017180008A2
:1017A000F117000803180008451800084B18000836
:1017B0004B1800084B1800084B1800084B1800087D
:1017C0004B1800084B1800084B1800084B1800086D
:1017D0004B1800084B1800084B1800084B1800085D
:1017E000F91700080D180008764A934213D02CE030
:1017F0003B68DB683B6229E03B68DB6804333B62A3
:1018000024E03B68DB6808333B621FE03B68DB6831
:101810000C333B621AE03B689B68002B02D1042327
:101820003B6213E03B689B68012B05D108233B62B8
:101830007B68FA691A6109E008233B627B68FA69F0
:101840005A6103E000233B6200E000BFBB69FF2B4D
:1018500001D87B6801E07B6804337B61BB69FF2BA7
:1018600002D87B6A9B0002E07B6A083B9B003B61DD
:101870007B691A680F213B6901FA03F3DB431A40C5
:10188000396A3B6901FA03F31A437B691A603B68C2
:101890005B6803F08053002B00F0A9804A4B9B69E2
:1018A000494A43F001039361474B9B6903F00103ED
:1018B000BB60BB68454A7B6A9B08023352F8233001
:1018C000FB607B6A03F003039B000F2202FA03F321
:1018D000DB43FA681340FB607B683D4A93420DD0BE
:1018E0007B683C4A934207D07B683B4A934201D1D4
:1018F000022304E0032302E0012300E000237A6ACC
:1019000002F0030292009340FA681343FB602F49F0
:101910007B6A9B080233FA6841F823203B685B68C6
:1019200003F48033002B06D02C4B1A682B49BB697B
:1019300013430B6006E0294B1A68BB69DB43274958
:1019400013400B603B685B6803F40033002B06D048
:10195000224B5A682149BB6913434B6006E01F4B79
:101960005A68BB69DB431D4913404B603B685B68A9
:1019700003F48013002B06D0184B9A681749BB69F3
:1019800013438B6006E0154B9A68BB69DB43134930
:1019900013408B603B685B6803F40013002B1FD07F
:1019A0000E4BDA680D49BB691343CB601FE000BFE3
:1019B0000000321000003110000022100000211041
:1019C0000000121000001110001002400000014041
:1019D00000080140000C01400010014000040140DB
:1019E0000B4BDA68BB69DB4309491340CB607B6A68
:1019F00001337B623B681A687B6A22FA03F3002B8F
:101A00007FF496AE00BF00BF2C37BD4680BC704748
:101A10000004014080B483B000AF78600B467B8047
:101A200013467B707B78002B03D07A887B681A6121
:101A300003E07B881A047B681A6100BF0C37BD463F
:101A400080BC704780B586B000AF78607B68002BA3
:101A500001D1012372E27B681B6803F00103002BB4
:101A600000F08780924B5B6803F00C03042B0CD0D2
:101A70008F4B5B6803F00C03082B12D18C4B5B6817
:101A800003F48033B3F5803F0BD1894B1B6803F41B
:101A90000033002B6CD07B685B68002B68D101237E
:101AA0004CE27B685B68B3F5803F06D1804B1B68D6
:101AB0007F4A43F4803313602EE07B685B68002B21
:101AC0000CD17B4B1B687A4A23F480331360784B2C
:101AD0001B68774A23F4802313601DE07B685B68F2
:101AE000B3F5A02F0CD1724B1B68714A43F48023CD
:101AF00013606F4B1B686E4A43F4803313600BE036
:101B00006B4B1B686A4A23F480331360684B1B6875
:101B1000674A23F4802313607B685B68002B13D033
:101B2000FFF7C0FC386108E0FFF7BCFC02463B69E8
:101B3000D31A642B01D9032300E25D4B1B6803F425
:101B40000033002BF0D014E0FFF7ACFC386108E064
:101B5000FFF7A8FC02463B69D31A642B01D9032383
:101B6000ECE1534B1B6803F40033002BF0D100E091
:101B700000BF7B681B6803F00203002B63D04C4B53
:101B80005B6803F00C03002B0BD0494B5B6803F040
:101B90000C03082B1CD1464B5B6803F48033002BED
:101BA00016D1434B1B6803F00203002B05D07B6862
:101BB0001B69012B01D00123C0E13D4B1B6823F0C1
:101BC000F8027B685B69DB00394913430B603AE03C
:101BD0007B681B69002B20D0364B01221A60FFF76F
:101BE00061FC386108E0FFF75DFC02463B69D31AEF
:101BF000022B01D90323A1E12D4B1B6803F0020343
:101C0000002BF0D02A4B1B6823F0F8027B685B693D
:101C1000DB00274913430B6015E0264B00221A60B6
:101C2000FFF740FC386108E0FFF73CFC02463B69E7
:101C3000D31A022B01D9032380E11D4B1B6803F04B
:101C40000203002BF0D17B681B6803F00803002B14
:101C50003AD07B689B69002B19D0174B01221A6080
:101C6000FFF720FC386108E0FFF71CFC02463B69E7
:101C7000D31A022B01D9032360E10D4B5B6A03F0F9
:101C80000203002BF0D0012000F0A6FA1CE00A4B62
:101C900000221A60FFF706FC38610FE0FFF702FC34
:101CA00002463B69D31A022B08D9032346E100BF41
:101CB000001002400000424280044242924B5B6AA4
:101CC00003F00203002BE9D17B681B6803F00403D7
:101CD000002B00F0A6800023FB758B4BDB6903F023
:101CE0008053002B0DD1884BDB69874A43F080532A
:101CF000D361854BDB6903F08053BB60BB68012374
:101D0000FB75824B1B6803F48073002B18D17F4B4B
:101D10001B687E4A43F480731360FFF7C3FB38618E
:101D200008E0FFF7BFFB02463B69D31A642B01D9D9
:101D3000032303E1754B1B6803F48073002BF0D081
:101D40007B68DB68012B06D16F4B1B6A6E4A43F040
:101D5000010313622DE07B68DB68002B0CD16A4B1A
:101D60001B6A694A23F001031362674B1B6A664AC8
:101D700023F0040313621CE07B68DB68052B0CD1A5
:101D8000614B1B6A604A43F0040313625E4B1B6A9B
:101D90005D4A43F0010313620BE05B4B1B6A5A4A36
:101DA00023F001031362584B1B6A574A23F00403C4
:101DB00013627B68DB68002B15D0FFF773FB38617B
:101DC0000AE0FFF76FFB02463B69D31A41F2883203
:101DD000934201D90323B1E04B4B1B6A03F002038A
:101DE000002BEED014E0FFF75DFB38610AE0FFF74F
:101DF00059FB02463B69D31A41F28832934201D91A
:101E000003239BE0404B1B6A03F00203002BEED13F
:101E1000FB7D012B05D13C4BDB693B4A23F0805312
:101E2000D3617B68DB69002B00F08780364B5B68F1
:101E300003F00C03082B61D07B68DB69022B46D1D1
:101E4000334B00221A60FFF72DFB386108E0FFF7E3
:101E500029FB02463B69D31A022B01D903236DE00B
:101E6000294B1B6803F00073002BF0D17B681B6AC1
:101E7000B3F5803F08D1244B5B6823F400327B68C4
:101E80009B68214913434B601F4B5B6823F474121A
:101E90007B68196A7B685B6A0B431B4913434B6081
:101EA0001B4B01221A60FFF7FDFA386108E0FFF7CB
:101EB000F9FA02463B69D31A022B01D903233DE00C
:101EC000114B1B6803F00073002BF0D035E0104B72
:101ED00000221A60FFF7E6FA386108E0FFF7E2FA3D
:101EE00002463B69D31A022B01D9032326E0064B95
:101EF0001B6803F00073002BF0D11EE07B68DB69E8
:101F0000012B07D1012319E00010024000700040AE
:101F1000600042420B4B5B68FB60FB6803F480325D
:101F20007B681B6A9A4206D1FB6803F470127B68D7
:101F30005B6A9A4201D0012300E00023184618375B
:101F4000BD4680BD0010024080B584B000AF78600F
:101F500039607B68002B01D10123D0E06A4B1B68FC
:101F600003F007033A689A4210D9674B1B6823F0C5
:101F7000070265493B6813430B60634B1B6803F022
:101F800007033A689A4201D00123B8E07B681B68D6
:101F900003F00203002B20D07B681B6803F00403CE
:101FA000002B05D0594B5B68584A43F4E0635360FB
:101FB0007B681B6803F00803002B05D0534B5B685C
:101FC000524A43F460535360504B5B6823F0F00275
:101FD0007B689B684D4913434B607B681B6803F02B
:101FE0000103002B40D07B685B68012B07D1474B76
:101FF0001B6803F40033002B15D101237FE07B68BD
:102000005B68022B07D1414B1B6803F00073002B68
:1020100009D1012373E03D4B1B6803F00203002B41
:1020200001D101236BE0394B5B6823F003027B682D
:102030005B68364913434B60FFF734FAF8600AE0F7
:10204000FFF730FA0246FB68D31A41F28832934216
:1020500001D9032353E02D4B5B6803F00C027B682E
:102060005B689B009A42EBD1274B1B6803F0070388
:102070003A689A4210D2244B1B6823F00702224987
:102080003B6813430B60204B1B6803F007033A685F
:102090009A4201D0012332E07B681B6803F00403FD
:1020A000002B08D0194B5B6823F4E0627B68DB6887
:1020B000164913434B607B681B6803F00803002B31
:1020C00009D0124B5B6823F460527B681B69DB000C
:1020D0000E4913434B6000F021F802460B4B5B683E
:1020E0001B0903F00F030A49CB5C22FA03F3094AE8
:1020F0001360094B1B681846FFF792F90023184636
:102100001037BD4680BD00BF0020024000100240D5
:10211000FC330008040000200800002090B48AB0BE
:1021200000AF294B3C1D0FCB84E80F0040F2012388
:102130003B800023FB610023BB6100237B62002303
:102140007B6100233B62214B5B68FB61FB6903F011
:102150000C03042B02D0082B03D02BE01C4B3B625A
:102160002BE0FB699B0C03F00F0328333B4413F86F
:10217000243C7B61FB6903F48033002B12D0134BAA
:102180005B685B0C03F0010328333B4413F8283CE5
:10219000BB617B690E4A03FB02F2BB69B2FBF3F33E
:1021A0007B6204E07B690B4A02FB03F37B627B6A80
:1021B0003B6202E0064B3B6200BF3B6A1846283791
:1021C000BD4690BC704700BFEC33000800100240D1
:1021D00000127A0000093D0080B485B000AF78603D
:1021E0000A4B1B680A4AA2FB03235B0A7A6802FBBC
:1021F00003F3FB6000BFFB685A1EFA60002BF9D1A5
:1022000000BF00BF1437BD4680BC704704000020EB
:10221000D34D621080B582B000AF78607B68002B30
:1022200001D1012341E07B6893F83D30DBB2002B04
:1022300006D17B68002283F83C207868FEF7DCFF3B
:102240007B68022283F83D207B681A687B68043330
:102250001946104600F0AEFA7B68012283F846204A
:102260007B68012283F83E207B68012283F83F20AF
:102270007B68012283F840207B68012283F841209B
:102280007B68012283F842207B68012283F8432087
:102290007B68012283F844207B68012283F8452073
:1022A0007B68012283F83D20002318460837BD468D
:1022B00080BD000080B485B000AF78607B6893F883
:1022C0003D30DBB2012B01D001232DE07B680222DF
:1022D00083F83D207B681B68164A934209D07B68CF
:1022E0001B68B3F1804F04D07B681B68124A93428D
:1022F00011D17B681B689B6803F00703FB60FB68D8
:10230000062B10D07B681B681A687B681B6842F03C
:1023100001021A6007E07B681B681A687B681B680B
:1023200042F001021A60002318461437BD4680BCF3
:10233000704700BF002C01400004004080B485B00D
:1023400000AF78607B6893F83D30DBB2012B01D0A1
:10235000012335E07B68022283F83D207B681B68FF
:10236000DA687B681B6842F00102DA607B681B68F0
:10237000164A934209D07B681B68B3F1804F04D0A2
:102380007B681B68124A934211D17B681B689B686B
:1023900003F00703FB60FB68062B10D07B681B680B
:1023A0001A687B681B6842F001021A6007E07B68CC
:1023B0001B681A687B681B6842F001021A600023E0
:1023C00018461437BD4680BC704700BF002C014042
:1023D0000004004080B582B000AF78607B681B6865
:1023E0001B6903F00203022B22D17B681B68DB68A8
:1023F00003F00203022B1BD17B681B686FF0020203
:102400001A617B6801221A777B681B689B6903F05D
:102410000303002B03D0786800F0B1F905E0786879
:1024200000F0A4F9786800F0B3F97B6800221A770D
:102430007B681B681B6903F00403042B22D17B68B3
:102440001B68DB6803F00403042B1BD17B681B684B
:102450006FF004021A617B6802221A777B681B689E
:102460009B6903F44073002B03D0786800F087F970
:1024700005E0786800F07AF9786800F089F97B68FF
:1024800000221A777B681B681B6903F00803082B7E
:1024900022D17B681B68DB6803F00803082B1BD183
:1024A0007B681B686FF008021A617B6804221A7748
:1024B0007B681B68DB6903F00303002B03D078689B
:1024C00000F05DF905E0786800F050F9786800F0F8
:1024D0005FF97B6800221A777B681B681B6903F031
:1024E0001003102B22D17B681B68DB6803F01003FC
:1024F000102B1BD17B681B686FF010021A617B6880
:1025000008221A777B681B68DB6903F44073002B91
:1025100003D0786800F033F905E0786800F026F918
:10252000786800F035F97B6800221A777B681B68B1
:102530001B6903F00103012B0ED17B681B68DB686C
:1025400003F00103012B07D17B681B686FF00102C8
:102550001A617868FEF7E4FD7B681B681B6903F06D
:102560008003802B0ED17B681B68DB6803F080033F
:10257000802B07D17B681B686FF080021A61786836
:1025800000F067FA7B681B681B6903F04003402B6F
:102590000ED17B681B68DB6803F04003402B07D13A
:1025A0007B681B686FF040021A61786800F0F9F8E8
:1025B0007B681B681B6903F02003202B0ED17B680E
:1025C0001B68DB6803F02003202B07D17B681B68A6
:1025D0006FF020021A61786800F032FA00BF083705
:1025E000BD4680BD80B584B000AF786039607B683F
:1025F00093F83C30012B01D10223B3E07B68012228
:1026000083F83C207B68022283F83D207B681B68AE
:102610009B68FB60FB6823F07703FB60FB6823F497
:102620007F43FB607B681B68FA689A603B681B68A5
:10263000B3F5005F3ED0B3F5005F00F28780B3F5DD
:10264000805F00F08580B3F5805F7FD8702B1AD053
:10265000702B7BD8602B50D0602B77D8502B3CD080
:10266000502B73D8402B58D0402B6FD8302B64D0D0
:10267000302B6BD8202B60D0202B67D8002B5CD060
:10268000102B5AD062E07B6818683B6899683B68F9
:102690005A683B68DB6800F05CF97B681B689B68E4
:1026A000FB60FB6843F07703FB607B681B68FA689C
:1026B0009A604EE07B6818683B6899683B685A6886
:1026C0003B68DB6800F045F97B681B689A687B68AB
:1026D0001B6842F480429A603BE07B6818683B6864
:1026E00059683B68DB681A4600F0BCF87B681B68D9
:1026F0005021184600F013F92BE07B6818683B68FE
:1027000059683B68DB681A4600F0DAF87B681B689A
:102710006021184600F003F91BE07B6818683B68ED
:1027200059683B68DB681A4600F09CF87B681B68B8
:102730004021184600F0F3F80BE07B681A683B680C
:102740001B681946104600F0EAF802E000BF00E0FE
:1027500000BF7B68012283F83D207B68002283F85C
:102760003C20002318461037BD4680BD80B483B09E
:1027700000AF786000BF0C37BD4680BC704780B4A6
:1027800083B000AF786000BF0C37BD4680BC704797
:1027900080B483B000AF786000BF0C37BD4680BC0A
:1027A000704780B483B000AF786000BF0C37BD467F
:1027B00080BC704780B485B000AF786039607B68BA
:1027C0001B68FB607B68254A934207D07B68B3F1A6
:1027D000804F03D07B68224A934208D1FB6823F0E4
:1027E0007003FB603B685B68FA681343FB607B68BF
:1027F0001A4A934207D07B68B3F1804F03D07B68BD
:10280000174A934208D1FB6823F44073FB603B688E
:10281000DB68FA681343FB60FB6823F080023B68C7
:102820005B691343FB607B68FA681A603B689A68CF
:102830007B68DA623B681A687B689A627B68074A41
:10284000934203D13B681A697B681A637B68012253
:102850005A6100BF1437BD4680BC7047002C014050
:102860000004004080B487B000AFF860B9607A60BF
:10287000FB681B6A7B61FB681B6A23F00102FB6833
:102880001A62FB689B693B613B6923F0F0033B6183
:102890007B681B013A6913433B617B6923F00A03A0
:1028A0007B617A69BB6813437B61FB683A699A6113
:1028B000FB687A691A6200BF1C37BD4680BC70474E
:1028C00080B487B000AFF860B9607A60FB681B6ABB
:1028D00023F01002FB681A62FB689B697B61FB684E
:1028E0001B6A3B617B6923F470437B617B681B033C
:1028F0007A6913437B613B6923F0A0033B61BB68AA
:102900001B013A6913433B61FB687A699A61FB6872
:102910003A691A6200BF1C37BD4680BC704780B45C
:1029200085B000AF786039607B689B68FB60FB68AE
:1029300023F07003FB603A68FB68134343F007031E
:10294000FB607B68FA689A6000BF1437BD4680BCA4
:10295000704780B487B000AFF860B9607A603B60C0
:10296000FB689B687B617B6923F47F437B613B68E9
:102970001A027B681A43BB6813437A6913437B616D
:10298000FB687A699A6000BF1C37BD4680BC7047FF
:1029900080B485B000AF786039607B6893F83C30D4
:1029A000012B01D1022341E07B68012283F83C2006
:1029B0007B68022283F83D207B681B685B68FB60B4
:1029C0007B681B689B68BB60FB6823F07003FB603F
:1029D0003B681B68FA681343FB607B681B68FA68F6
:1029E0005A607B681B68144A934209D07B681B6855
:1029F000B3F1804F04D07B681B68104A93420CD11E
:102A0000BB6823F08003BB603B685B68BA68134314
:102A1000BB607B681B68BA689A607B68012283F898
:102A20003D207B68002283F83C20002318461437A1
:102A3000BD4680BC704700BF002C01400004004030
:102A400080B483B000AF786000BF0C37BD4680BC57
:102A5000704780B483B000AF786000BF0C37BD46CC
:102A600080BC7047014B1868704700BF1000002001
:102A700070B500260C4D0D4C641BA410A64209D164
:102A800000F09CFC00260A4D0A4C641BA410A642D0
:102A900005D170BD55F8043B98470136EEE755F86F
:102AA000043B98470136F2E7403400084034000800
:102AB000403400084434000803460244934200D1E5
:102AC000704703F8011BF9E70EB46FF0004100B541
:102AD0009CB01DAB029006900791049108480949EB
:102AE00053F8042B0591006802A9019300F068F8DF
:102AF0000022029B1A701CB05DF804EB03B0704713
:102B0000100000200802FFFF2DE9F0478E68824682
:102B10009E420C4690461F4638D88A8912F4906F20
:102B200032D0256809690133A5EB010965694B4479
:102B300005EB450505EBD5756D109D4238BF1D466B
:102B4000530531D5294600F06FFB064650B90C23DA
:102B50004FF0FF30CAF80030A38943F04003A3814F
:102B6000BDE8F0874A46216900F0CEFAA38923F434
:102B7000906343F08003A38126614E4426603E4665
:102B80006561A5EB0905A560BE4200D93E46324607
:102B90004146206800F0C6FAA36800209B1BA36092
:102BA000236833442360DBE72A4600F0B1FB064686
:102BB0000028E1D15046216900F0CEFAC7E70000B5
:102BC0002DE9F04F98468B8907461B060D461446A3
:102BD0009DB00ED50B6963B9402100F025FB28603C
:102BE000286120B90C233B604FF0FF30D1E0402337
:102BF0006B610023099320238DF8293030234FF097
:102C00000109CDF80C80DFF8A4818DF82A30234625
:102C10009A4613F8012B0AB1252AF9D1BAEB040B15
:102C20000BD05B46224629463846FFF76DFF013040
:102C300000F0AA80099A5A4409929AF80030002BB1
:102C400000F0A28000234FF0FF32CDE905230AF106
:102C5000010A049307938DF853301A9354460522C2
:102C600014F8011B514800F041FA049AD8B9D00673
:102C700044BF20238DF85330110744BF2B238DF818
:102C800053309AF800302A2B15D0544600204FF0CC
:102C90000A0C079A214611F8013B303B092B4ED90B
:102CA000B0B1079214E0A0EB080309FA03F3134351
:102CB000A2460493D2E7039B191D1B680391002BC6
:102CC000BBBF5B4242F0020207930793B8BF049276
:102CD00023782E2B0CD163782A2B35D1039B023419
:102CE0001A1D1B680392002BB8BF4FF0FF330593EA
:102CF000DFF8BCA003225046217800F0F7F940B17C
:102D00004023A0EB0A0003FA00F0049B01340343C4
:102D1000049314F8011B062226488DF8281000F0B1
:102D2000E5F9002838D0244B1BBB039B073323F065
:102D3000070308330393099B3344099367E70C4661
:102D400001200CFB0232A5E700234FF00A0C1946C4
:102D500001340593204610F8012B303A092A03D993
:102D6000002BC5D00591C3E7044601230CFB0121CC
:102D7000F0E703AB00932A463846104B04A9AFF3A3
:102D80000080421C0646D6D1AB895B063FF52CAFCE
:102D900009981DB0BDE8F08F03AB00932A46384672
:102DA000064B04A900F07CF8EBE700BF0C340008E8
:102DB000123400081634000800000000092B000837
:102DC0002DE9F047164699468A680B6907469342F3
:102DD000B8BF1346336091F843200C46DDF82080DD
:102DE0000AB1013333602368990642BF3368023366
:102DF0003360256815F0060506D104F1190AE36869
:102E000032689B1AAB4228DC94F84320131E2268D8
:102E100018BF012392062DD44946384604F14302D7
:102E2000C047013020D02368E56803F00603042B77
:102E300018BF002532684FF00006A36808BFAD1A1E
:102E4000226908BF25EAE5759342C4BF9B1AED18B5
:102E50001A34B5421AD1002008E0012352464946EF
:102E60003846C047013003D14FF0FF30BDE8F0874E
:102E70000135C4E73020E11881F843005A1C94F86A
:102E800045102244023382F84310C5E7012322464D
:102E900049463846C0470130E6D00136D9E7000040
:102EA0002DE9FF470F7E9146782F80460C469A46C3
:102EB0000C9D01F1430207D8622F0AD8002F00F0C1
:102EC000D980582F00F0A48004F1420584F84270A4
:102ED0003AE0A7F16303152BF6D801A151F823F0CE
:102EE000392F00084D2F0008C92E0008C92E0008F0
:102EF000C92E0008C92E00084D2F0008C92E000851
:102F0000C92E0008C92E0008C92E00085B30000831
:102F10007D2F00083D300008C92E0008C92E00088A
:102F20007D300008C92E00087D2F0008C92E00083A
:102F3000C92E0008453000082B681A1D1B682A603E
:102F400004F1420584F842300123A4E02068296896
:102F5000060601F104030AD50E682B60002E03DA81
:102F60002D23764284F843300A235E4819E00E6828
:102F700010F0400F2B6018BF36B2EFE72B682068C7
:102F8000191D2960010601D51E6802E04606FBD521
:102F90001E886F2F0CBF08230A235248002184F893
:102FA00043106568002DA8BF2168A560A4BF21F06B
:102FB000040121600EB9002D4DD01546B6FBF3F18A
:102FC00003FB1167C75D05F8017D3746BB420E461E
:102FD000F4D9082B0BD12368DE0708D52369616873
:102FE0009942DEBF302305F8013C05F1FF35521B45
:102FF00022614B4621464046CDF800A003AAFFF7C8
:10300000DFFE01304CD14FF0FF3004B0BDE8F08757
:10301000344881F845702968236851F8046B2960A9
:103020001D0614D5DF0744BF43F0200323601EB9FB
:10303000236823F0200323601023AFE7236843F0C5
:10304000200323607823284884F84530E3E75906B5
:1030500048BFB6B2E6E71546BBE72B682668181DE1
:103060006169286035061B6801D5196002E07006A9
:10307000FBD51980002315462361BAE72B68002190
:103080001A1D2A601D686268284600F02FF808B1F2
:10309000401B606063682361002384F84330A8E725
:1030A0002A46494640462369D0470130ABD02368C1
:1030B0009B0713D4E068039B9842B8BF1846A4E767
:1030C0000123324649464046D04701309BD0013566
:1030D000E36803995B1AAB42F2DCEBE7002504F1ED
:1030E0001906F5E71D3400082E340008034610B514
:1030F000C9B202449342184601D1002003E004788B
:1031000001338C42F6D110BD0A44914200F1FF33E5
:1031100000D1704710B511F8014B914203F8014FEF
:10312000F9D110BD884210B501EB020402D98442E6
:10313000234607D8431EA14208D011F8012B03F8FB
:10314000012FF8E7014602448A4200D110BD13F86E
:10315000014D02F8014DF7E738B50546002940D08A
:1031600051F8043C0C1F002BB8BFE41800F010F914
:103170001C4A136833B9636014602846BDE83840C0
:1031800000F00CB9A34208D9206821188B4201BF76
:1031900019685B6809182160EDE71A465B680BB196
:1031A000A342FAD911685018A0420BD120680144FB
:1031B000501883421160E0D118685B6801441160C7
:1031C0005360DAE702D90C232B60D6E72068211878
:1031D0008B4201BF19685B68091821606360546005
:1031E000CBE738BD6001002070B50E4E0C4631684B
:1031F000054611B900F0BCF830602146284600F0C1
:10320000B7F8431C0AD0C41C24F00304A04207D022
:10321000211A284600F0ACF8013001D14FF0FF34FC
:10322000204670BD640100202DE9F041CD1C25F041
:10323000030508350C2D38BF0C25002D074601DB92
:10324000A94205D90C2300263B603046BDE8F08139
:103250002E4E00F09DF833681C4634BB2946384694
:10326000FFF7C2FF431C04464DD134682646002EAA
:1032700040D123683146384604EB030800F078F863
:1032800080453AD1216803356D1A25F003050835CC
:103290000C2D38BF0C2538462946FFF7A5FF013015
:1032A0002BD023682B4423600EE02268521B1ED4CF
:1032B0000B2A16D96119A342256018BF59606368AB
:1032C00008BF316062514B60384604F10B0600F0D4
:1032D00065F826F00706231DF21AB6D09B1BA350F3
:1032E000B3E76268A3420CBF32605A60ECE7234642
:1032F0006468B2E734467668B9E70C2338463B6029
:1033000000F04CF8A1E72560DEE700BF6001002077
:103310002DE9F041804614460E4621B91146BDE81C
:10332000F041FFF781BF2AB9FFF716FF254628466F
:10333000BDE8F08100F038F88442074602D8B4EBCB
:10334000500F12D821464046FFF76EFF0546002871
:10335000EDD0BC422246314628BF3A46FFF7D4FEA4
:1033600031464046FFF7F8FEE1E73546DFE700006B
:1033700038B50023054D044608462B60FDF7D8FFFD
:10338000431C02D12B6803B1236038BD68010020C3
:10339000014800F011B800BF6C010020014800F0A6
:1033A0000CB800BF6C01002051F8043C181F002B22
:1033B000BCBF0B58C018704770477047F8B500BFC6
:1033C000F8BC08BC9E467047F8B500BFF8BC08BC06
:0433D0009E4670475E
:1033D4004C202D3E2000000046726563202D3E20C7
:1033E400256420487A0A0000020304050607080938
:1033F4000A0B0C0D0E0F101000000000000000005E
:103404000102030406070809232D302B2000686CF1
:103414004C006566674546470030313233343536F3
:10342400373839414243444546003031323334352C
:0C34340036373839616263646566000059
:04344000350100084A
:04344400110100086A
:10344800BD3786350024F40010000000010000009C
:103458001400002000000000000000000000000030
:103468000000000000000000000000000000000054
:103478000000000000000000000000000000000044
:103488000000000000000000000000000000000034
:103498000000000000000000000000000000000024
:1034A8000000000000000000000000000000000014
:0434B8000000000010
:04000005080013A933
:00000001FF
